{
  "contractName": "CarpoolBounties",
  "abi": [
    {
      "constant": true,
      "inputs": [],
      "name": "owner",
      "outputs": [
        {
          "name": "",
          "type": "address"
        }
      ],
      "payable": false,
      "stateMutability": "view",
      "type": "function"
    },
    {
      "constant": true,
      "inputs": [
        {
          "name": "",
          "type": "uint256"
        }
      ],
      "name": "bounties",
      "outputs": [
        {
          "name": "issuer",
          "type": "address"
        },
        {
          "name": "deadline",
          "type": "uint256"
        },
        {
          "name": "long",
          "type": "uint256"
        },
        {
          "name": "lat",
          "type": "uint256"
        },
        {
          "name": "fulfillmentAmount",
          "type": "uint256"
        },
        {
          "name": "arbiter",
          "type": "address"
        },
        {
          "name": "paysTokens",
          "type": "bool"
        },
        {
          "name": "bountyStage",
          "type": "uint8"
        },
        {
          "name": "balance",
          "type": "uint256"
        }
      ],
      "payable": false,
      "stateMutability": "view",
      "type": "function"
    },
    {
      "anonymous": false,
      "inputs": [
        {
          "indexed": false,
          "name": "bountyId",
          "type": "uint256"
        }
      ],
      "name": "BountyIssued",
      "type": "event"
    },
    {
      "anonymous": false,
      "inputs": [
        {
          "indexed": false,
          "name": "bountyId",
          "type": "uint256"
        },
        {
          "indexed": false,
          "name": "issuer",
          "type": "address"
        }
      ],
      "name": "BountyActivated",
      "type": "event"
    },
    {
      "anonymous": false,
      "inputs": [
        {
          "indexed": false,
          "name": "bountyId",
          "type": "uint256"
        },
        {
          "indexed": true,
          "name": "fulfiller",
          "type": "address"
        },
        {
          "indexed": true,
          "name": "_fulfillmentId",
          "type": "uint256"
        }
      ],
      "name": "BountyFulfilled",
      "type": "event"
    },
    {
      "anonymous": false,
      "inputs": [
        {
          "indexed": false,
          "name": "_bountyId",
          "type": "uint256"
        },
        {
          "indexed": false,
          "name": "_fulfillmentId",
          "type": "uint256"
        }
      ],
      "name": "FulfillmentUpdated",
      "type": "event"
    },
    {
      "anonymous": false,
      "inputs": [
        {
          "indexed": false,
          "name": "bountyId",
          "type": "uint256"
        },
        {
          "indexed": true,
          "name": "fulfiller",
          "type": "address"
        },
        {
          "indexed": true,
          "name": "_fulfillmentId",
          "type": "uint256"
        }
      ],
      "name": "FulfillmentAccepted",
      "type": "event"
    },
    {
      "anonymous": false,
      "inputs": [
        {
          "indexed": false,
          "name": "bountyId",
          "type": "uint256"
        },
        {
          "indexed": true,
          "name": "issuer",
          "type": "address"
        }
      ],
      "name": "BountyKilled",
      "type": "event"
    },
    {
      "anonymous": false,
      "inputs": [
        {
          "indexed": false,
          "name": "bountyId",
          "type": "uint256"
        },
        {
          "indexed": true,
          "name": "contributor",
          "type": "address"
        },
        {
          "indexed": false,
          "name": "value",
          "type": "uint256"
        }
      ],
      "name": "ContributionAdded",
      "type": "event"
    },
    {
      "anonymous": false,
      "inputs": [
        {
          "indexed": false,
          "name": "bountyId",
          "type": "uint256"
        },
        {
          "indexed": false,
          "name": "newDeadline",
          "type": "uint256"
        }
      ],
      "name": "DeadlineExtended",
      "type": "event"
    },
    {
      "anonymous": false,
      "inputs": [
        {
          "indexed": false,
          "name": "bountyId",
          "type": "uint256"
        }
      ],
      "name": "BountyChanged",
      "type": "event"
    },
    {
      "anonymous": false,
      "inputs": [
        {
          "indexed": false,
          "name": "_bountyId",
          "type": "uint256"
        },
        {
          "indexed": true,
          "name": "_newIssuer",
          "type": "address"
        }
      ],
      "name": "IssuerTransferred",
      "type": "event"
    },
    {
      "anonymous": false,
      "inputs": [
        {
          "indexed": false,
          "name": "_bountyId",
          "type": "uint256"
        },
        {
          "indexed": false,
          "name": "_newFulfillmentAmount",
          "type": "uint256"
        }
      ],
      "name": "PayoutIncreased",
      "type": "event"
    },
    {
      "constant": false,
      "inputs": [
        {
          "name": "_owner",
          "type": "address"
        }
      ],
      "name": "StandardBounties",
      "outputs": [],
      "payable": false,
      "stateMutability": "nonpayable",
      "type": "function"
    },
    {
      "constant": false,
      "inputs": [
        {
          "name": "_issuer",
          "type": "address"
        },
        {
          "name": "_deadline",
          "type": "uint256"
        },
        {
          "name": "_long",
          "type": "uint256"
        },
        {
          "name": "_lat",
          "type": "uint256"
        },
        {
          "name": "_fulfillmentAmount",
          "type": "uint256"
        },
        {
          "name": "_arbiter",
          "type": "address"
        },
        {
          "name": "_paysTokens",
          "type": "bool"
        },
        {
          "name": "_tokenContract",
          "type": "address"
        }
      ],
      "name": "issueBounty",
      "outputs": [
        {
          "name": "",
          "type": "uint256"
        }
      ],
      "payable": false,
      "stateMutability": "nonpayable",
      "type": "function"
    },
    {
      "constant": false,
      "inputs": [
        {
          "name": "_issuer",
          "type": "address"
        },
        {
          "name": "_deadline",
          "type": "uint256"
        },
        {
          "name": "_long",
          "type": "uint256"
        },
        {
          "name": "_lat",
          "type": "uint256"
        },
        {
          "name": "_fulfillmentAmount",
          "type": "uint256"
        },
        {
          "name": "_arbiter",
          "type": "address"
        },
        {
          "name": "_paysTokens",
          "type": "bool"
        },
        {
          "name": "_tokenContract",
          "type": "address"
        },
        {
          "name": "_value",
          "type": "uint256"
        }
      ],
      "name": "issueAndActivateBounty",
      "outputs": [
        {
          "name": "",
          "type": "uint256"
        }
      ],
      "payable": true,
      "stateMutability": "payable",
      "type": "function"
    },
    {
      "constant": false,
      "inputs": [
        {
          "name": "_bountyId",
          "type": "uint256"
        },
        {
          "name": "_value",
          "type": "uint256"
        }
      ],
      "name": "activateBounty",
      "outputs": [],
      "payable": true,
      "stateMutability": "payable",
      "type": "function"
    },
    {
      "constant": false,
      "inputs": [
        {
          "name": "_bountyId",
          "type": "uint256"
        },
        {
          "name": "_long",
          "type": "uint256"
        },
        {
          "name": "_lat",
          "type": "uint256"
        }
      ],
      "name": "fulfillBounty",
      "outputs": [],
      "payable": false,
      "stateMutability": "nonpayable",
      "type": "function"
    },
    {
      "constant": false,
      "inputs": [
        {
          "name": "_bountyId",
          "type": "uint256"
        },
        {
          "name": "_fulfillmentId",
          "type": "uint256"
        },
        {
          "name": "_long",
          "type": "uint256"
        },
        {
          "name": "_lat",
          "type": "uint256"
        }
      ],
      "name": "updateFulfillment",
      "outputs": [],
      "payable": false,
      "stateMutability": "nonpayable",
      "type": "function"
    },
    {
      "constant": false,
      "inputs": [
        {
          "name": "_bountyId",
          "type": "uint256"
        },
        {
          "name": "_fulfillmentId",
          "type": "uint256"
        }
      ],
      "name": "acceptFulfillment",
      "outputs": [],
      "payable": false,
      "stateMutability": "nonpayable",
      "type": "function"
    },
    {
      "constant": false,
      "inputs": [
        {
          "name": "_bountyId",
          "type": "uint256"
        }
      ],
      "name": "killBounty",
      "outputs": [],
      "payable": false,
      "stateMutability": "nonpayable",
      "type": "function"
    },
    {
      "constant": false,
      "inputs": [
        {
          "name": "_bountyId",
          "type": "uint256"
        },
        {
          "name": "_newDeadline",
          "type": "uint256"
        }
      ],
      "name": "extendDeadline",
      "outputs": [],
      "payable": false,
      "stateMutability": "nonpayable",
      "type": "function"
    }
  ],
  "bytecode": "0x608060405234801561001057600080fd5b50612388806100206000396000f3006080604052600436106100af576000357c0100000000000000000000000000000000000000000000000000000000900463ffffffff16806307f9f7ba146100b457806309907c4a146100f7578063103db9541461014257806316b57509146101835780632d1fdef6146101b057806349baa8bb146101e7578063626a413a146102af5780637a003e74146102d95780638da5cb5b146103a4578063d9583497146103fb578063dc2f874414610432575b600080fd5b3480156100c057600080fd5b506100f5600480360381019080803573ffffffffffffffffffffffffffffffffffffffff169060200190929190505050610515565b005b34801561010357600080fd5b5061014060048036038101908080359060200190929190803590602001909291908035906020019092919080359060200190929190505050610558565b005b34801561014e57600080fd5b5061018160048036038101908080359060200190929190803590602001909291908035906020019092919050505061072a565b005b34801561018f57600080fd5b506101ae60048036038101908080359060200190929190505050610a5d565b005b3480156101bc57600080fd5b506101e56004803603810190808035906020019092919080359060200190929190505050610dbc565b005b610299600480360381019080803573ffffffffffffffffffffffffffffffffffffffff16906020019092919080359060200190929190803590602001909291908035906020019092919080359060200190929190803573ffffffffffffffffffffffffffffffffffffffff169060200190929190803515159060200190929190803573ffffffffffffffffffffffffffffffffffffffff16906020019092919080359060200190929190505050610ee7565b6040518082815260200191505060405180910390f35b6102d760048036038101908080359060200190929190803590602001909291905050506113df565b005b3480156102e557600080fd5b5061038e600480360381019080803573ffffffffffffffffffffffffffffffffffffffff16906020019092919080359060200190929190803590602001909291908035906020019092919080359060200190929190803573ffffffffffffffffffffffffffffffffffffffff169060200190929190803515159060200190929190803573ffffffffffffffffffffffffffffffffffffffff169060200190929190505050611975565b6040518082815260200191505060405180910390f35b3480156103b057600080fd5b506103b9611c0b565b604051808273ffffffffffffffffffffffffffffffffffffffff1673ffffffffffffffffffffffffffffffffffffffff16815260200191505060405180910390f35b34801561040757600080fd5b506104306004803603810190808035906020019092919080359060200190929190505050611c30565b005b34801561043e57600080fd5b5061045d60048036038101908080359060200190929190505050612260565b604051808a73ffffffffffffffffffffffffffffffffffffffff1673ffffffffffffffffffffffffffffffffffffffff1681526020018981526020018881526020018781526020018681526020018573ffffffffffffffffffffffffffffffffffffffff1673ffffffffffffffffffffffffffffffffffffffff168152602001841515151581526020018360028111156104f357fe5b60ff168152602001828152602001995050505050505050505060405180910390f35b806000806101000a81548173ffffffffffffffffffffffffffffffffffffffff021916908373ffffffffffffffffffffffffffffffffffffffff16021790555050565b836001805490508110151561056c57600080fd5b848460026000838152602001908152602001600020805490508110151561059257600080fd5b868660026000838152602001908152602001600020818154811015156105b457fe5b906000526020600020906003020160000160019054906101000a900473ffffffffffffffffffffffffffffffffffffffff1673ffffffffffffffffffffffffffffffffffffffff163373ffffffffffffffffffffffffffffffffffffffff1614151561061f57600080fd5b888860001515600260008481526020019081526020016000208281548110151561064557fe5b906000526020600020906003020160000160009054906101000a900460ff16151514151561067257600080fd5b88600260008d81526020019081526020016000208b81548110151561069357fe5b90600052602060002090600302016001018190555087600260008d81526020019081526020016000208b8154811015156106c957fe5b9060005260206000209060030201600201819055507f6e609af2c76c6673122c9a6ee1677adc2e9f20ec9979d056bf6c4f40799b95588b8b604051808381526020018281526020019250505060405180910390a15050505050505050505050565b826001805490508110151561073e57600080fd5b836002600082815260200190815260200160002080549050600160026000848152602001908152602001600020805490500111151561077c57600080fd5b84600180600281111561078b57fe5b60018381548110151561079a57fe5b906000526020600020906007020160050160159054906101000a900460ff1660028111156107c457fe5b1415156107d057600080fd5b866001818154811015156107e057fe5b906000526020600020906007020160010154421015156107ff57600080fd5b8760018181548110151561080f57fe5b906000526020600020906007020160000160009054906101000a900473ffffffffffffffffffffffffffffffffffffffff1673ffffffffffffffffffffffffffffffffffffffff163373ffffffffffffffffffffffffffffffffffffffff16141580156108e8575060018181548110151561088657fe5b906000526020600020906007020160050160009054906101000a900473ffffffffffffffffffffffffffffffffffffffff1673ffffffffffffffffffffffffffffffffffffffff163373ffffffffffffffffffffffffffffffffffffffff1614155b15156108f357600080fd5b600260008a81526020019081526020016000206080604051908101604052806000151581526020013373ffffffffffffffffffffffffffffffffffffffff1681526020018a8152602001898152509080600181540180825580915050906001820390600052602060002090600302016000909192909190915060008201518160000160006101000a81548160ff02191690831515021790555060208201518160000160016101000a81548173ffffffffffffffffffffffffffffffffffffffff021916908373ffffffffffffffffffffffffffffffffffffffff16021790555060408201518160010155606082015181600201555050506001600260008b815260200190815260200160002080549050033373ffffffffffffffffffffffffffffffffffffffff167feb70bc86dda3bbb4f37b25318d4737f2641d3e315df2f59a123c5a06197103578b6040518082815260200191505060405180910390a3505050505050505050565b60008160018054905081101515610a7357600080fd5b82600181815481101515610a8357fe5b906000526020600020906007020160000160009054906101000a900473ffffffffffffffffffffffffffffffffffffffff1673ffffffffffffffffffffffffffffffffffffffff163373ffffffffffffffffffffffffffffffffffffffff16141515610aee57600080fd5b610af9846002612317565b600184815481101515610b0857fe5b90600052602060002090600702016006015492506000600185815481101515610b2d57fe5b9060005260206000209060070201600601819055506000831115610d6857600184815481101515610b5a57fe5b906000526020600020906007020160050160149054906101000a900460ff1615610cdf576004600085815260200190815260200160002060009054906101000a900473ffffffffffffffffffffffffffffffffffffffff1673ffffffffffffffffffffffffffffffffffffffff1663a9059cbb600186815481101515610bdc57fe5b906000526020600020906007020160000160009054906101000a900473ffffffffffffffffffffffffffffffffffffffff16856040518363ffffffff167c0100000000000000000000000000000000000000000000000000000000028152600401808373ffffffffffffffffffffffffffffffffffffffff1673ffffffffffffffffffffffffffffffffffffffff16815260200182815260200192505050602060405180830381600087803b158015610c9457600080fd5b505af1158015610ca8573d6000803e3d6000fd5b505050506040513d6020811015610cbe57600080fd5b81019080805190602001909291905050501515610cda57600080fd5b610d67565b600184815481101515610cee57fe5b906000526020600020906007020160000160009054906101000a900473ffffffffffffffffffffffffffffffffffffffff1673ffffffffffffffffffffffffffffffffffffffff166108fc849081150290604051600060405180830381858888f19350505050158015610d65573d6000803e3d6000fd5b505b5b3373ffffffffffffffffffffffffffffffffffffffff167f1b5171f0f6cd238c5b76b002b28e5c29dc3864174e7ed7f168b5e6373196d901856040518082815260200191505060405180910390a250505050565b8160018054905081101515610dd057600080fd5b82600181815481101515610de057fe5b906000526020600020906007020160000160009054906101000a900473ffffffffffffffffffffffffffffffffffffffff1673ffffffffffffffffffffffffffffffffffffffff163373ffffffffffffffffffffffffffffffffffffffff16141515610e4b57600080fd5b8383600182815481101515610e5c57fe5b90600052602060002090600702016001015481111515610e7b57600080fd5b84600187815481101515610e8b57fe5b9060005260206000209060070201600101819055507f073d5fd87a7e0c2a384727f9aab2e84826370623aba582638b425a417e799a2c8686604051808381526020018281526020019250505060405180910390a1505050505050565b60008060008a4281111515610efb57600080fd5b6001805490506001808054905001111515610f1557600080fd5b888510151515610f2457600080fd5b349250848303915086156110f1578134141515610f4057600080fd5b8560046000600180549050815260200190815260200160002060006101000a81548173ffffffffffffffffffffffffffffffffffffffff021916908373ffffffffffffffffffffffffffffffffffffffff16021790555060046000600180549050815260200190815260200160002060009054906101000a900473ffffffffffffffffffffffffffffffffffffffff1673ffffffffffffffffffffffffffffffffffffffff166323b872dd3330886040518463ffffffff167c0100000000000000000000000000000000000000000000000000000000028152600401808473ffffffffffffffffffffffffffffffffffffffff1673ffffffffffffffffffffffffffffffffffffffff1681526020018373ffffffffffffffffffffffffffffffffffffffff1673ffffffffffffffffffffffffffffffffffffffff1681526020018281526020019350505050602060405180830381600087803b1580156110a657600080fd5b505af11580156110ba573d6000803e3d6000fd5b505050506040513d60208110156110d057600080fd5b810190808051906020019092919050505015156110ec57600080fd5b611103565b346001860214151561110257600080fd5b5b6001610120604051908101604052808f73ffffffffffffffffffffffffffffffffffffffff1681526020018e81526020018d81526020018c81526020018b81526020018a73ffffffffffffffffffffffffffffffffffffffff16815260200189151581526020016001600281111561117757fe5b8152602001878152509080600181540180825580915050906001820390600052602060002090600702016000909192909190915060008201518160000160006101000a81548173ffffffffffffffffffffffffffffffffffffffff021916908373ffffffffffffffffffffffffffffffffffffffff1602179055506020820151816001015560408201518160020155606082015181600301556080820151816004015560a08201518160050160006101000a81548173ffffffffffffffffffffffffffffffffffffffff021916908373ffffffffffffffffffffffffffffffffffffffff16021790555060c08201518160050160146101000a81548160ff02191690831515021790555060e08201518160050160156101000a81548160ff021916908360028111156112a557fe5b021790555061010082015181600601555050507fe04ac09e4a49338f40cf62a51ba721823ed22f57bc4d53c6f8684bdb1be8fd1060018080549050036040518082815260200191505060405180910390a13373ffffffffffffffffffffffffffffffffffffffff167f75aecd8d57cb4b1b263271bddb4961b993924dd466e6003c254832572d8a57e1600180805490500387604051808381526020018281526020019250505060405180910390a27fe42c1b76efa2e9aa5b354a151174590827beb1ef94bde26787491bf4e7d68a19600180805490500333604051808381526020018273ffffffffffffffffffffffffffffffffffffffff1673ffffffffffffffffffffffffffffffffffffffff1681526020019250505060405180910390a1600180805490500393505050509998505050505050505050565b81600180549050811015156113f357600080fd5b8260018181548110151561140357fe5b9060005260206000209060070201600101544210151561142257600080fd5b8360018181548110151561143257fe5b906000526020600020906007020160000160009054906101000a900473ffffffffffffffffffffffffffffffffffffffff1673ffffffffffffffffffffffffffffffffffffffff163373ffffffffffffffffffffffffffffffffffffffff1614151561149d57600080fd5b848460006001838154811015156114b057fe5b906000526020600020906007020160050160149054906101000a900460ff1615611866576000341415156114e357600080fd5b6004600084815260200190815260200160002060009054906101000a900473ffffffffffffffffffffffffffffffffffffffff1673ffffffffffffffffffffffffffffffffffffffff166370a08231306040518263ffffffff167c0100000000000000000000000000000000000000000000000000000000028152600401808273ffffffffffffffffffffffffffffffffffffffff1673ffffffffffffffffffffffffffffffffffffffff168152602001915050602060405180830381600087803b1580156115b157600080fd5b505af11580156115c5573d6000803e3d6000fd5b505050506040513d60208110156115db57600080fd5b81019080805190602001909291905050509050600082141515611749576004600084815260200190815260200160002060009054906101000a900473ffffffffffffffffffffffffffffffffffffffff1673ffffffffffffffffffffffffffffffffffffffff166323b872dd3330856040518463ffffffff167c0100000000000000000000000000000000000000000000000000000000028152600401808473ffffffffffffffffffffffffffffffffffffffff1673ffffffffffffffffffffffffffffffffffffffff1681526020018373ffffffffffffffffffffffffffffffffffffffff1673ffffffffffffffffffffffffffffffffffffffff1681526020018281526020019350505050602060405180830381600087803b15801561170257600080fd5b505af1158015611716573d6000803e3d6000fd5b505050506040513d602081101561172c57600080fd5b8101908080519060200190929190505050151561174857600080fd5b5b81816004600086815260200190815260200160002060009054906101000a900473ffffffffffffffffffffffffffffffffffffffff1673ffffffffffffffffffffffffffffffffffffffff166370a08231306040518263ffffffff167c0100000000000000000000000000000000000000000000000000000000028152600401808273ffffffffffffffffffffffffffffffffffffffff1673ffffffffffffffffffffffffffffffffffffffff168152602001915050602060405180830381600087803b15801561181957600080fd5b505af115801561182d573d6000803e3d6000fd5b505050506040513d602081101561184357600080fd5b81019080805190602001909291905050500314151561186157600080fd5b611878565b346001830214151561187757600080fd5b5b8660018981548110151561188857fe5b9060005260206000209060070201600601600082825401925050819055506001888154811015156118b557fe5b9060005260206000209060070201600401546001898154811015156118d657fe5b906000526020600020906007020160060154101515156118f557600080fd5b611900886001612317565b7fe42c1b76efa2e9aa5b354a151174590827beb1ef94bde26787491bf4e7d68a198833604051808381526020018273ffffffffffffffffffffffffffffffffffffffff1673ffffffffffffffffffffffffffffffffffffffff1681526020019250505060405180910390a15050505050505050565b600087428111151561198657600080fd5b60018054905060018080549050011115156119a057600080fd5b6001610120604051908101604052808c73ffffffffffffffffffffffffffffffffffffffff1681526020018b81526020018a81526020018981526020018881526020018773ffffffffffffffffffffffffffffffffffffffff168152602001861515815260200160006002811115611a1457fe5b815260200160008152509080600181540180825580915050906001820390600052602060002090600702016000909192909190915060008201518160000160006101000a81548173ffffffffffffffffffffffffffffffffffffffff021916908373ffffffffffffffffffffffffffffffffffffffff1602179055506020820151816001015560408201518160020155606082015181600301556080820151816004015560a08201518160050160006101000a81548173ffffffffffffffffffffffffffffffffffffffff021916908373ffffffffffffffffffffffffffffffffffffffff16021790555060c08201518160050160146101000a81548160ff02191690831515021790555060e08201518160050160156101000a81548160ff02191690836002811115611b4357fe5b021790555061010082015181600601555050508315611bb65782600460006001808054905003815260200190815260200160002060006101000a81548173ffffffffffffffffffffffffffffffffffffffff021916908373ffffffffffffffffffffffffffffffffffffffff1602179055505b7fe04ac09e4a49338f40cf62a51ba721823ed22f57bc4d53c6f8684bdb1be8fd1060018080549050036040518082815260200191505060405180910390a1600180805490500391505098975050505050505050565b6000809054906101000a900473ffffffffffffffffffffffffffffffffffffffff1681565b8160018054905081101515611c4457600080fd5b8282600260008381526020019081526020016000208054905081101515611c6a57600080fd5b84600181815481101515611c7a57fe5b906000526020600020906007020160000160009054906101000a900473ffffffffffffffffffffffffffffffffffffffff1673ffffffffffffffffffffffffffffffffffffffff163373ffffffffffffffffffffffffffffffffffffffff161480611dc95750600181815481101515611cef57fe5b906000526020600020906007020160050160009054906101000a900473ffffffffffffffffffffffffffffffffffffffff1673ffffffffffffffffffffffffffffffffffffffff163373ffffffffffffffffffffffffffffffffffffffff16148015611dc85750600073ffffffffffffffffffffffffffffffffffffffff16600182815481101515611d7d57fe5b906000526020600020906007020160050160009054906101000a900473ffffffffffffffffffffffffffffffffffffffff1673ffffffffffffffffffffffffffffffffffffffff1614155b5b1515611dd457600080fd5b856001806002811115611de357fe5b600183815481101515611df257fe5b906000526020600020906007020160050160159054906101000a900460ff166002811115611e1c57fe5b141515611e2857600080fd5b8787600015156002600084815260200190815260200160002082815481101515611e4e57fe5b906000526020600020906003020160000160009054906101000a900460ff161515141515611e7b57600080fd5b89600181815481101515611e8b57fe5b906000526020600020906007020160040154600182815481101515611eac57fe5b90600052602060002090600702016006015410151515611ecb57600080fd5b6001600260008d81526020019081526020016000208b815481101515611eed57fe5b906000526020600020906003020160000160006101000a81548160ff021916908315150217905550600360008c81526020019081526020016000206000815480929190600101919050555060018b815481101515611f4757fe5b90600052602060002090600702016004015460018c815481101515611f6857fe5b90600052602060002090600702016006016000828254039250508190555060018b815481101515611f9557fe5b906000526020600020906007020160050160149054906101000a900460ff161561214b57600460008c815260200190815260200160002060009054906101000a900473ffffffffffffffffffffffffffffffffffffffff1673ffffffffffffffffffffffffffffffffffffffff1663a9059cbb600260008e81526020019081526020016000208c81548110151561202857fe5b906000526020600020906003020160000160019054906101000a900473ffffffffffffffffffffffffffffffffffffffff1660018e81548110151561206957fe5b9060005260206000209060070201600401546040518363ffffffff167c0100000000000000000000000000000000000000000000000000000000028152600401808373ffffffffffffffffffffffffffffffffffffffff1673ffffffffffffffffffffffffffffffffffffffff16815260200182815260200192505050602060405180830381600087803b15801561210057600080fd5b505af1158015612114573d6000803e3d6000fd5b505050506040513d602081101561212a57600080fd5b8101908080519060200190929190505050151561214657600080fd5b612204565b600260008c81526020019081526020016000208a81548110151561216b57fe5b906000526020600020906003020160000160019054906101000a900473ffffffffffffffffffffffffffffffffffffffff1673ffffffffffffffffffffffffffffffffffffffff166108fc60018d8154811015156121c557fe5b9060005260206000209060070201600401549081150290604051600060405180830381858888f19350505050158015612202573d6000803e3d6000fd5b505b893373ffffffffffffffffffffffffffffffffffffffff167f7b9dbf959e54bb2ff6e9d505ef00d6b7fb3ce97880816181aecca973c1da31e68d6040518082815260200191505060405180910390a35050505050505050505050565b60018181548110151561226f57fe5b90600052602060002090600702016000915090508060000160009054906101000a900473ffffffffffffffffffffffffffffffffffffffff16908060010154908060020154908060030154908060040154908060050160009054906101000a900473ffffffffffffffffffffffffffffffffffffffff16908060050160149054906101000a900460ff16908060050160159054906101000a900460ff16908060060154905089565b8060018381548110151561232757fe5b906000526020600020906007020160050160156101000a81548160ff0219169083600281111561235357fe5b021790555050505600a165627a7a7230582024c26bcdd355e17146b90c8bb5a442ff0cc69e10d293eed55dbc390fb561aa370029",
  "source": "pragma solidity ^0.4.18;\nimport \"./ERC20.sol\";\n//import \"./ownable.sol\";\n\n/// @title modified from StandardBounties by Mark Beylin <mark.beylin@consensys.net>\n/// @dev Used to pay out individuals or groups for task fulfillment through\n/// stepwise work submission, acceptance, and payment\ncontract CarpoolBounties {\n\n  event BountyIssued(uint bountyId);\n  event BountyActivated(uint bountyId, address issuer);\n  event BountyFulfilled(uint bountyId, address indexed fulfiller, uint256 indexed _fulfillmentId);\n  event FulfillmentUpdated(uint _bountyId, uint _fulfillmentId);\n  event FulfillmentAccepted(uint bountyId, address indexed fulfiller, uint256 indexed _fulfillmentId);\n  event BountyKilled(uint bountyId, address indexed issuer);\n  event ContributionAdded(uint bountyId, address indexed contributor, uint256 value);\n  event DeadlineExtended(uint bountyId, uint newDeadline);\n  event BountyChanged(uint bountyId);\n  event IssuerTransferred(uint _bountyId, address indexed _newIssuer);\n  event PayoutIncreased(uint _bountyId, uint _newFulfillmentAmount);\n  \n  address public owner;\n\n  Bounty[] public bounties;\n\n  mapping(uint=>Fulfillment[]) fulfillments;\n  mapping(uint=>uint) numAccepted;\n  mapping(uint=>ERC20) tokenContracts;\n\n  enum BountyStages {\n      Draft,\n      Active,\n      Dead\n  }\n\n  struct Bounty {\n      address issuer;\n      uint deadline;\n      uint long;\n      uint lat;\n      uint fulfillmentAmount;\n      address arbiter;\n      bool paysTokens;\n      BountyStages bountyStage;\n      uint balance;\n  }\n\n  struct Fulfillment {\n      bool accepted;\n      address fulfiller;\n      uint long;\n      uint lat;\n  }\n\n  modifier validateNotTooManyBounties(){\n    require((bounties.length + 1) > bounties.length);\n    _;\n  }\n\n  modifier validateNotTooManyFulfillments(uint _bountyId){\n    require((fulfillments[_bountyId].length + 1) > fulfillments[_bountyId].length);\n    _;\n  }\n\n  modifier validateBountyArrayIndex(uint _bountyId){\n    require(_bountyId < bounties.length);\n    _;\n  }\n\n  modifier onlyIssuer(uint _bountyId) {\n      require(msg.sender == bounties[_bountyId].issuer);\n      _;\n  }\n\n  modifier onlyFulfiller(uint _bountyId, uint _fulfillmentId) {\n      require(msg.sender == fulfillments[_bountyId][_fulfillmentId].fulfiller);\n      _;\n  }\n\n  modifier amountIsNotZero(uint _amount) {\n      require(_amount != 0);\n      _;\n  }\n\n  modifier transferredAmountEqualsValue(uint _bountyId, uint _amount) {\n      if (bounties[_bountyId].paysTokens){\n        require(msg.value == 0);\n        uint oldBalance = tokenContracts[_bountyId].balanceOf(this);\n        if (_amount != 0){\n          require(tokenContracts[_bountyId].transferFrom(msg.sender, this, _amount));\n        }\n        require((tokenContracts[_bountyId].balanceOf(this) - oldBalance) == _amount);\n\n      } else {\n        require((_amount * 1 wei) == msg.value);\n      }\n      _;\n  }\n\n  modifier isBeforeDeadline(uint _bountyId) {\n      require(now < bounties[_bountyId].deadline);\n      _;\n  }\n\n  modifier validateDeadline(uint _newDeadline) {\n      require(_newDeadline > now);\n      _;\n  }\n\n  modifier isAtStage(uint _bountyId, BountyStages _desiredStage) {\n      require(bounties[_bountyId].bountyStage == _desiredStage);\n      _;\n  }\n\n  modifier validateFulfillmentArrayIndex(uint _bountyId, uint _index) {\n      require(_index < fulfillments[_bountyId].length);\n      _;\n  }\n\n  modifier notYetAccepted(uint _bountyId, uint _fulfillmentId){\n      require(fulfillments[_bountyId][_fulfillmentId].accepted == false);\n      _;\n  }\n\n  function StandardBounties(address _owner)\n      public\n  {\n      owner = _owner;\n  }\n\n  function issueBounty( //the driver should be using this function \n      address _issuer,\n      uint _deadline,\n      uint _long,\n      uint _lat,\n      uint256 _fulfillmentAmount,\n      address _arbiter,\n      bool _paysTokens,\n      address _tokenContract\n  )\n      public\n      validateDeadline(_deadline)\n      //amountIsNotZero(_fulfillmentAmount)\n      validateNotTooManyBounties\n      returns (uint)\n  {\n      bounties.push(Bounty(_issuer, _deadline, _long, _lat, _fulfillmentAmount, _arbiter, _paysTokens, BountyStages.Draft, 0));\n      if (_paysTokens){\n        tokenContracts[bounties.length - 1] = ERC20(_tokenContract);\n      }\n      emit BountyIssued(bounties.length - 1);\n      return (bounties.length - 1);\n  }\n  \n  function issueAndActivateBounty( //the rider should be using this function\n      address _issuer,\n      uint _deadline,\n      uint _long,\n      uint _lat,\n      uint256 _fulfillmentAmount,\n      address _arbiter,\n      bool _paysTokens,\n      address _tokenContract,\n      uint256 _value\n  )\n      public\n      payable\n      validateDeadline(_deadline)\n      //amountIsNotZero(_fulfillmentAmount)\n      validateNotTooManyBounties\n      returns (uint)\n  {\n      require (_value >= _fulfillmentAmount); //driverssettheprice\n      uint beforebalance = msg.value;\n      uint afterbalance = beforebalance - _value;\n      if (_paysTokens){\n        require(msg.value == afterbalance);\n        tokenContracts[bounties.length] = ERC20(_tokenContract);\n        require(tokenContracts[bounties.length].transferFrom(msg.sender, this, _value));\n      } else {\n        require((_value * 1 wei) == msg.value);\n      }\n      bounties.push(Bounty(_issuer,\n                            _deadline,\n                            _long,\n                            _lat,\n                            _fulfillmentAmount,\n                            _arbiter,\n                            _paysTokens,\n                            BountyStages.Active,\n                            _value));\n      emit BountyIssued(bounties.length - 1);\n      emit ContributionAdded(bounties.length - 1, msg.sender, _value);\n      emit BountyActivated(bounties.length - 1, msg.sender);\n      return (bounties.length - 1);\n  }\n\n  modifier isNotDead(uint _bountyId) {\n      require(bounties[_bountyId].bountyStage != BountyStages.Dead);\n      _;\n  }\n  \n  function activateBounty(uint _bountyId, uint _value) //driver uses this function to pay himself - should be at the start of the ride\n      payable\n      public\n      validateBountyArrayIndex(_bountyId)\n      isBeforeDeadline(_bountyId)\n      onlyIssuer(_bountyId)\n      transferredAmountEqualsValue(_bountyId, _value)\n  {\n      bounties[_bountyId].balance += _value; //need to pay escrow instead some reputation tokens\n      require (bounties[_bountyId].balance >= bounties[_bountyId].fulfillmentAmount);\n      transitionToState(_bountyId, BountyStages.Active);\n\n      //emit ContributionAdded(_bountyId, msg.sender, _value);\n      emit BountyActivated(_bountyId, msg.sender);\n  }\n\n  modifier notIssuerOrArbiter(uint _bountyId) {\n      require(msg.sender != bounties[_bountyId].issuer && msg.sender != bounties[_bountyId].arbiter);\n      _;\n  }\n\n  function fulfillBounty(uint _bountyId, uint _long, uint _lat) //driver confirms ride has ended\n      public\n      validateBountyArrayIndex(_bountyId)\n      validateNotTooManyFulfillments(_bountyId)\n      isAtStage(_bountyId, BountyStages.Active)\n      isBeforeDeadline(_bountyId)\n      notIssuerOrArbiter(_bountyId)\n  {\n      fulfillments[_bountyId].push(Fulfillment(false, msg.sender, _long, _lat));\n\n      emit BountyFulfilled(_bountyId, msg.sender, (fulfillments[_bountyId].length - 1));\n  }\n\n  function updateFulfillment(uint _bountyId, uint _fulfillmentId, uint _long, uint _lat) //rider should confirm the has started\n      public\n      validateBountyArrayIndex(_bountyId)\n      validateFulfillmentArrayIndex(_bountyId, _fulfillmentId)\n      onlyFulfiller(_bountyId, _fulfillmentId)\n      notYetAccepted(_bountyId, _fulfillmentId)\n  {\n      fulfillments[_bountyId][_fulfillmentId].long = _long;\n      fulfillments[_bountyId][_fulfillmentId].lat = _lat;\n      emit FulfillmentUpdated(_bountyId, _fulfillmentId);\n  }\n\n  modifier onlyIssuerOrArbiter(uint _bountyId) {\n      require(msg.sender == bounties[_bountyId].issuer ||\n         (msg.sender == bounties[_bountyId].arbiter && bounties[_bountyId].arbiter != address(0)));\n      _;\n  }\n\n  modifier fulfillmentNotYetAccepted(uint _bountyId, uint _fulfillmentId) {\n      require(fulfillments[_bountyId][_fulfillmentId].accepted == false);\n      _;\n  }\n\n  modifier enoughFundsToPay(uint _bountyId) {\n      require(bounties[_bountyId].balance >= bounties[_bountyId].fulfillmentAmount);\n      _;\n  }\n  \n  function acceptFulfillment(uint _bountyId, uint _fulfillmentId) //rider should confirm that ride has ended\n      public\n      validateBountyArrayIndex(_bountyId)\n      validateFulfillmentArrayIndex(_bountyId, _fulfillmentId)\n      onlyIssuerOrArbiter(_bountyId)\n      isAtStage(_bountyId, BountyStages.Active)\n      fulfillmentNotYetAccepted(_bountyId, _fulfillmentId)\n      enoughFundsToPay(_bountyId)\n  {\n      fulfillments[_bountyId][_fulfillmentId].accepted = true;\n      numAccepted[_bountyId]++;\n      bounties[_bountyId].balance -= bounties[_bountyId].fulfillmentAmount;\n      if (bounties[_bountyId].paysTokens){\n        require(tokenContracts[_bountyId].transfer(fulfillments[_bountyId][_fulfillmentId].fulfiller, bounties[_bountyId].fulfillmentAmount));\n      } else {\n        fulfillments[_bountyId][_fulfillmentId].fulfiller.transfer(bounties[_bountyId].fulfillmentAmount);\n      }\n      emit FulfillmentAccepted(_bountyId, msg.sender, _fulfillmentId);\n  }\n\n  function killBounty(uint _bountyId) //if driver wants to cancel the ride \n      public\n      validateBountyArrayIndex(_bountyId)\n      onlyIssuer(_bountyId)\n  {\n      transitionToState(_bountyId, BountyStages.Dead);\n      uint oldBalance = bounties[_bountyId].balance;\n      bounties[_bountyId].balance = 0;\n      if (oldBalance > 0){\n        if (bounties[_bountyId].paysTokens){\n          require(tokenContracts[_bountyId].transfer(bounties[_bountyId].issuer, oldBalance));\n        } else {\n          bounties[_bountyId].issuer.transfer(oldBalance);\n        }\n      }\n      emit BountyKilled(_bountyId, msg.sender);\n  }\n\n  modifier newDeadlineIsValid(uint _bountyId, uint _newDeadline) {\n      require(_newDeadline > bounties[_bountyId].deadline);\n      _;\n  }\n\n  function extendDeadline(uint _bountyId, uint _newDeadline) //if\n      public\n      validateBountyArrayIndex(_bountyId)\n      onlyIssuer(_bountyId)\n      newDeadlineIsValid(_bountyId, _newDeadline)\n  {\n      bounties[_bountyId].deadline = _newDeadline;\n\n      emit DeadlineExtended(_bountyId, _newDeadline);\n  }\n\n  function transitionToState(uint _bountyId, BountyStages _newStage)\n      internal\n  {\n      bounties[_bountyId].bountyStage = _newStage;\n  }\n}",
  "sourcePath": "/Users/victor/stackathon/contracts/CarpoolBounties.sol",
  "compiler": {
    "name": "solc",
    "version": "0.4.24+commit.e67f0147.Emscripten.clang"
  },
  "schemaVersion": "2.0.1",
  "updatedAt": "2018-11-25T07:16:17.208Z"
}